{
  "_format": "hh-sol-artifact-1",
  "contractName": "MyEpicNFT",
  "sourceName": "contracts/ MyEpicNFT.sol",
  "abi": [
    {
      "inputs": [],
      "stateMutability": "nonpayable",
      "type": "constructor"
    },
    {
      "anonymous": false,
      "inputs": [
        {
          "indexed": true,
          "internalType": "address",
          "name": "owner",
          "type": "address"
        },
        {
          "indexed": true,
          "internalType": "address",
          "name": "approved",
          "type": "address"
        },
        {
          "indexed": true,
          "internalType": "uint256",
          "name": "tokenId",
          "type": "uint256"
        }
      ],
      "name": "Approval",
      "type": "event"
    },
    {
      "anonymous": false,
      "inputs": [
        {
          "indexed": true,
          "internalType": "address",
          "name": "owner",
          "type": "address"
        },
        {
          "indexed": true,
          "internalType": "address",
          "name": "operator",
          "type": "address"
        },
        {
          "indexed": false,
          "internalType": "bool",
          "name": "approved",
          "type": "bool"
        }
      ],
      "name": "ApprovalForAll",
      "type": "event"
    },
    {
      "anonymous": false,
      "inputs": [
        {
          "indexed": false,
          "internalType": "address",
          "name": "sender",
          "type": "address"
        },
        {
          "indexed": false,
          "internalType": "uint256",
          "name": "tokenId",
          "type": "uint256"
        }
      ],
      "name": "NewEpicNFTMinted",
      "type": "event"
    },
    {
      "anonymous": false,
      "inputs": [
        {
          "indexed": true,
          "internalType": "address",
          "name": "from",
          "type": "address"
        },
        {
          "indexed": true,
          "internalType": "address",
          "name": "to",
          "type": "address"
        },
        {
          "indexed": true,
          "internalType": "uint256",
          "name": "tokenId",
          "type": "uint256"
        }
      ],
      "name": "Transfer",
      "type": "event"
    },
    {
      "inputs": [
        {
          "internalType": "address",
          "name": "to",
          "type": "address"
        },
        {
          "internalType": "uint256",
          "name": "tokenId",
          "type": "uint256"
        }
      ],
      "name": "approve",
      "outputs": [],
      "stateMutability": "nonpayable",
      "type": "function"
    },
    {
      "inputs": [
        {
          "internalType": "address",
          "name": "owner",
          "type": "address"
        }
      ],
      "name": "balanceOf",
      "outputs": [
        {
          "internalType": "uint256",
          "name": "",
          "type": "uint256"
        }
      ],
      "stateMutability": "view",
      "type": "function"
    },
    {
      "inputs": [
        {
          "internalType": "uint256",
          "name": "tokenId",
          "type": "uint256"
        }
      ],
      "name": "getApproved",
      "outputs": [
        {
          "internalType": "address",
          "name": "",
          "type": "address"
        }
      ],
      "stateMutability": "view",
      "type": "function"
    },
    {
      "inputs": [],
      "name": "getTotalNFTsMintedSoFar",
      "outputs": [
        {
          "internalType": "uint256",
          "name": "",
          "type": "uint256"
        }
      ],
      "stateMutability": "view",
      "type": "function"
    },
    {
      "inputs": [
        {
          "internalType": "address",
          "name": "owner",
          "type": "address"
        },
        {
          "internalType": "address",
          "name": "operator",
          "type": "address"
        }
      ],
      "name": "isApprovedForAll",
      "outputs": [
        {
          "internalType": "bool",
          "name": "",
          "type": "bool"
        }
      ],
      "stateMutability": "view",
      "type": "function"
    },
    {
      "inputs": [],
      "name": "makeAnEpicNFT",
      "outputs": [],
      "stateMutability": "nonpayable",
      "type": "function"
    },
    {
      "inputs": [],
      "name": "name",
      "outputs": [
        {
          "internalType": "string",
          "name": "",
          "type": "string"
        }
      ],
      "stateMutability": "view",
      "type": "function"
    },
    {
      "inputs": [
        {
          "internalType": "uint256",
          "name": "tokenId",
          "type": "uint256"
        }
      ],
      "name": "ownerOf",
      "outputs": [
        {
          "internalType": "address",
          "name": "",
          "type": "address"
        }
      ],
      "stateMutability": "view",
      "type": "function"
    },
    {
      "inputs": [
        {
          "internalType": "uint256",
          "name": "tokenId",
          "type": "uint256"
        }
      ],
      "name": "pickRandomFirstWord",
      "outputs": [
        {
          "internalType": "string",
          "name": "",
          "type": "string"
        }
      ],
      "stateMutability": "view",
      "type": "function"
    },
    {
      "inputs": [
        {
          "internalType": "uint256",
          "name": "tokenId",
          "type": "uint256"
        }
      ],
      "name": "pickRandomSecondWord",
      "outputs": [
        {
          "internalType": "string",
          "name": "",
          "type": "string"
        }
      ],
      "stateMutability": "view",
      "type": "function"
    },
    {
      "inputs": [
        {
          "internalType": "uint256",
          "name": "tokenId",
          "type": "uint256"
        }
      ],
      "name": "pickRandomThirdWord",
      "outputs": [
        {
          "internalType": "string",
          "name": "",
          "type": "string"
        }
      ],
      "stateMutability": "view",
      "type": "function"
    },
    {
      "inputs": [
        {
          "internalType": "address",
          "name": "from",
          "type": "address"
        },
        {
          "internalType": "address",
          "name": "to",
          "type": "address"
        },
        {
          "internalType": "uint256",
          "name": "tokenId",
          "type": "uint256"
        }
      ],
      "name": "safeTransferFrom",
      "outputs": [],
      "stateMutability": "nonpayable",
      "type": "function"
    },
    {
      "inputs": [
        {
          "internalType": "address",
          "name": "from",
          "type": "address"
        },
        {
          "internalType": "address",
          "name": "to",
          "type": "address"
        },
        {
          "internalType": "uint256",
          "name": "tokenId",
          "type": "uint256"
        },
        {
          "internalType": "bytes",
          "name": "_data",
          "type": "bytes"
        }
      ],
      "name": "safeTransferFrom",
      "outputs": [],
      "stateMutability": "nonpayable",
      "type": "function"
    },
    {
      "inputs": [
        {
          "internalType": "address",
          "name": "operator",
          "type": "address"
        },
        {
          "internalType": "bool",
          "name": "approved",
          "type": "bool"
        }
      ],
      "name": "setApprovalForAll",
      "outputs": [],
      "stateMutability": "nonpayable",
      "type": "function"
    },
    {
      "inputs": [
        {
          "internalType": "bytes4",
          "name": "interfaceId",
          "type": "bytes4"
        }
      ],
      "name": "supportsInterface",
      "outputs": [
        {
          "internalType": "bool",
          "name": "",
          "type": "bool"
        }
      ],
      "stateMutability": "view",
      "type": "function"
    },
    {
      "inputs": [],
      "name": "symbol",
      "outputs": [
        {
          "internalType": "string",
          "name": "",
          "type": "string"
        }
      ],
      "stateMutability": "view",
      "type": "function"
    },
    {
      "inputs": [
        {
          "internalType": "uint256",
          "name": "tokenId",
          "type": "uint256"
        }
      ],
      "name": "tokenURI",
      "outputs": [
        {
          "internalType": "string",
          "name": "",
          "type": "string"
        }
      ],
      "stateMutability": "view",
      "type": "function"
    },
    {
      "inputs": [
        {
          "internalType": "address",
          "name": "from",
          "type": "address"
        },
        {
          "internalType": "address",
          "name": "to",
          "type": "address"
        },
        {
          "internalType": "uint256",
          "name": "tokenId",
          "type": "uint256"
        }
      ],
      "name": "transferFrom",
      "outputs": [],
      "stateMutability": "nonpayable",
      "type": "function"
    }
  ],
  "bytecode": "0x608060405260405180610160016040528061012f81526020016200476661012f9139600890805190602001906200003892919062000b62565b50604051806101a001604052806040518060400160405280600981526020017f43686f636f6c617465000000000000000000000000000000000000000000000081525081526020016040518060400160405280600981526020017f50697374616368696f000000000000000000000000000000000000000000000081525081526020016040518060400160405280600a81526020017f537472617762657272790000000000000000000000000000000000000000000081525081526020016040518060400160405280600681526020017f4d6174636861000000000000000000000000000000000000000000000000000081525081526020016040518060400160405280600481526020017f59757a750000000000000000000000000000000000000000000000000000000081525081526020016040518060400160405280600a81526020017f537472617762657272790000000000000000000000000000000000000000000081525081526020016040518060400160405280600481526020017f4f72656f0000000000000000000000000000000000000000000000000000000081525081526020016040518060400160405280600681526020017f536573616d65000000000000000000000000000000000000000000000000000081525081526020016040518060400160405280600781526020017f56616e696c6c610000000000000000000000000000000000000000000000000081525081526020016040518060400160405280600581526020017f4d616e676f00000000000000000000000000000000000000000000000000000081525081526020016040518060400160405280600781526020017f4f61746d65616c0000000000000000000000000000000000000000000000000081525081526020016040518060400160405280600c81526020017f42757474657273636f746368000000000000000000000000000000000000000081525081526020016040518060400160405280600381526020017f5562650000000000000000000000000000000000000000000000000000000000815250815250600990600d6200035492919062000bf3565b50604051806101a001604052806040518060400160405280600681526020017f4f7973746572000000000000000000000000000000000000000000000000000081525081526020016040518060400160405280600881526020017f5368696974616b6500000000000000000000000000000000000000000000000081525081526020016040518060400160405280600b81526020017f4368616e746572656c6c6500000000000000000000000000000000000000000081525081526020016040518060400160405280600681526020017f526569736869000000000000000000000000000000000000000000000000000081525081526020016040518060400160405280600781526020017f5472756d7065740000000000000000000000000000000000000000000000000081525081526020016040518060400160405280600581526020017f456e6f6b6900000000000000000000000000000000000000000000000000000081525081526020016040518060400160405280600581526020017f436861676100000000000000000000000000000000000000000000000000000081525081526020016040518060400160405280600a81526020017f506f72746162656c6c6f0000000000000000000000000000000000000000000081525081526020016040518060400160405280600781526020017f4d616974616b650000000000000000000000000000000000000000000000000081525081526020016040518060400160405280600581526020017f426565636800000000000000000000000000000000000000000000000000000081525081526020016040518060400160405280600581526020017f4d6f72656c00000000000000000000000000000000000000000000000000000081525081526020016040518060400160405280600881526020017f4865646765686f6700000000000000000000000000000000000000000000000081525081526020016040518060400160405280600781526020017f506f7263696e6f00000000000000000000000000000000000000000000000000815250815250600a90600d6200067092919062000bf3565b50604051806101a001604052806040518060400160405280600781526020017f436865646461720000000000000000000000000000000000000000000000000081525081526020016040518060400160405280600a81526020017f4d6f7a7a6172656c6c610000000000000000000000000000000000000000000081525081526020016040518060400160405280600481526020017f466574610000000000000000000000000000000000000000000000000000000081525081526020016040518060400160405280600581526020017f476f75646100000000000000000000000000000000000000000000000000000081525081526020016040518060400160405280600481526020017f427269650000000000000000000000000000000000000000000000000000000081525081526020016040518060400160405280600781526020017f5269636f7474610000000000000000000000000000000000000000000000000081525081526020016040518060400160405280600881526020017f5061726d6573616e00000000000000000000000000000000000000000000000081525081526020016040518060400160405280600981526020017f43616d656d62657274000000000000000000000000000000000000000000000081525081526020016040518060400160405280600781526020017f477275796572650000000000000000000000000000000000000000000000000081525081526020016040518060400160405280600881526020017f4d75656e7374657200000000000000000000000000000000000000000000000081525081526020016040518060400160405280600981526020017f50726f766f6c6f6e65000000000000000000000000000000000000000000000081525081526020016040518060400160405280600581526020017f537769737300000000000000000000000000000000000000000000000000000081525081526020016040518060400160405280600781526020017f4861727661746900000000000000000000000000000000000000000000000000815250815250600b90600d6200098c92919062000bf3565b506000600c556032600d55348015620009a457600080fd5b506040518060400160405280600981526020017f5371756172654e465400000000000000000000000000000000000000000000008152506040518060400160405280600681526020017f5351554152450000000000000000000000000000000000000000000000000000815250816000908051906020019062000a2992919062000b62565b50806001908051906020019062000a4292919062000b62565b50505062000a906040518060400160405280601e81526020017f54686973206973206d79204e465420636f6e74726163742e20576f616821000081525062000a9660201b620012c21760201c565b62000e14565b62000b368160405160240162000aad919062000d28565b6040516020818303038152906040527f41304fac000000000000000000000000000000000000000000000000000000007bffffffffffffffffffffffffffffffffffffffffffffffffffffffff19166020820180517bffffffffffffffffffffffffffffffffffffffffffffffffffffffff838183161783525050505062000b3960201b60201c565b50565b60008151905060006a636f6e736f6c652e6c6f679050602083016000808483855afa5050505050565b82805462000b709062000d9e565b90600052602060002090601f01602090048101928262000b94576000855562000be0565b82601f1062000baf57805160ff191683800117855562000be0565b8280016001018555821562000be0579182015b8281111562000bdf57825182559160200191906001019062000bc2565b5b50905062000bef919062000c5a565b5090565b82805482825590600052602060002090810192821562000c47579160200282015b8281111562000c4657825182908051906020019062000c3592919062000b62565b509160200191906001019062000c14565b5b50905062000c56919062000c79565b5090565b5b8082111562000c7557600081600090555060010162000c5b565b5090565b5b8082111562000c9d576000818162000c93919062000ca1565b5060010162000c7a565b5090565b50805462000caf9062000d9e565b6000825580601f1062000cc3575062000ce4565b601f01602090049060005260206000209081019062000ce3919062000c5a565b5b50565b600062000cf48262000d4c565b62000d00818562000d57565b935062000d1281856020860162000d68565b62000d1d8162000e03565b840191505092915050565b6000602082019050818103600083015262000d44818462000ce7565b905092915050565b600081519050919050565b600082825260208201905092915050565b60005b8381101562000d8857808201518184015260208101905062000d6b565b8381111562000d98576000848401525b50505050565b6000600282049050600182168062000db757607f821691505b6020821081141562000dce5762000dcd62000dd4565b5b50919050565b7f4e487b7100000000000000000000000000000000000000000000000000000000600052602260045260246000fd5b6000601f19601f8301169050919050565b6139428062000e246000396000f3fe608060405234801561001057600080fd5b50600436106101165760003560e01c806370a08231116100a2578063b88d4fde11610071578063b88d4fde14610305578063c575757a14610321578063c87b56dd14610351578063de9d132f14610381578063e985e9c51461038b57610116565b806370a082311461026b57806395d89b411461029b578063a22cb465146102b9578063b187301f146102d557610116565b8063095ea7b3116100e9578063095ea7b3146101b757806323b872dd146101d35780632de38d68146101ef57806342842e0e1461021f5780636352211e1461023b57610116565b806301ffc9a71461011b578063060475901461014b57806306fdde0314610169578063081812fc14610187575b600080fd5b61013560048036038101906101309190612536565b6103bb565b6040516101429190613198565b60405180910390f35b61015361049d565b6040516101609190613433565b60405180910390f35b6101716104a7565b60405161017e91906131b3565b60405180910390f35b6101a1600480360381019061019c9190612588565b610539565b6040516101ae9190613108565b60405180910390f35b6101d160048036038101906101cc91906124fa565b6105be565b005b6101ed60048036038101906101e891906123f4565b6106d6565b005b61020960048036038101906102049190612588565b610736565b60405161021691906131b3565b60405180910390f35b610239600480360381019061023491906123f4565b610854565b005b61025560048036038101906102509190612588565b610874565b6040516102629190613108565b60405180910390f35b6102856004803603810190610280919061238f565b610926565b6040516102929190613433565b60405180910390f35b6102a36109de565b6040516102b091906131b3565b60405180910390f35b6102d360048036038101906102ce91906124be565b610a70565b005b6102ef60048036038101906102ea9190612588565b610bf1565b6040516102fc91906131b3565b60405180910390f35b61031f600480360381019061031a9190612443565b610d0f565b005b61033b60048036038101906103369190612588565b610d71565b60405161034891906131b3565b60405180910390f35b61036b60048036038101906103669190612588565b610e8f565b60405161037891906131b3565b60405180910390f35b610389610fe1565b005b6103a560048036038101906103a091906123b8565b61122e565b6040516103b29190613198565b60405180910390f35b60007f80ac58cd000000000000000000000000000000000000000000000000000000007bffffffffffffffffffffffffffffffffffffffffffffffffffffffff1916827bffffffffffffffffffffffffffffffffffffffffffffffffffffffff1916148061048657507f5b5e139f000000000000000000000000000000000000000000000000000000007bffffffffffffffffffffffffffffffffffffffffffffffffffffffff1916827bffffffffffffffffffffffffffffffffffffffffffffffffffffffff1916145b8061049657506104958261135b565b5b9050919050565b6000600c54905090565b6060600080546104b6906136d2565b80601f01602080910402602001604051908101604052809291908181526020018280546104e2906136d2565b801561052f5780601f106105045761010080835404028352916020019161052f565b820191906000526020600020905b81548152906001019060200180831161051257829003601f168201915b5050505050905090565b6000610544826113c5565b610583576040517f08c379a000000000000000000000000000000000000000000000000000000000815260040161057a90613393565b60405180910390fd5b6004600083815260200190815260200160002060009054906101000a900473ffffffffffffffffffffffffffffffffffffffff169050919050565b60006105c982610874565b90508073ffffffffffffffffffffffffffffffffffffffff168373ffffffffffffffffffffffffffffffffffffffff16141561063a576040517f08c379a0000000000000000000000000000000000000000000000000000000008152600401610631906133f3565b60405180910390fd5b8073ffffffffffffffffffffffffffffffffffffffff16610659611431565b73ffffffffffffffffffffffffffffffffffffffff161480610688575061068781610682611431565b61122e565b5b6106c7576040517f08c379a00000000000000000000000000000000000000000000000000000000081526004016106be906132d3565b60405180910390fd5b6106d18383611439565b505050565b6106e76106e1611431565b826114f2565b610726576040517f08c379a000000000000000000000000000000000000000000000000000000000815260040161071d90613413565b60405180910390fd5b6107318383836115d0565b505050565b6060600061076a6107468461182c565b60405160200161075691906130c4565b6040516020818303038152906040526119d9565b90506009805490508161077d919061374d565b9050600981815481106107b9577f4e487b7100000000000000000000000000000000000000000000000000000000600052603260045260246000fd5b9060005260206000200180546107ce906136d2565b80601f01602080910402602001604051908101604052809291908181526020018280546107fa906136d2565b80156108475780601f1061081c57610100808354040283529160200191610847565b820191906000526020600020905b81548152906001019060200180831161082a57829003601f168201915b5050505050915050919050565b61086f83838360405180602001604052806000815250610d0f565b505050565b6000806002600084815260200190815260200160002060009054906101000a900473ffffffffffffffffffffffffffffffffffffffff169050600073ffffffffffffffffffffffffffffffffffffffff168173ffffffffffffffffffffffffffffffffffffffff16141561091d576040517f08c379a000000000000000000000000000000000000000000000000000000000815260040161091490613313565b60405180910390fd5b80915050919050565b60008073ffffffffffffffffffffffffffffffffffffffff168273ffffffffffffffffffffffffffffffffffffffff161415610997576040517f08c379a000000000000000000000000000000000000000000000000000000000815260040161098e906132f3565b60405180910390fd5b600360008373ffffffffffffffffffffffffffffffffffffffff1673ffffffffffffffffffffffffffffffffffffffff168152602001908152602001600020549050919050565b6060600180546109ed906136d2565b80601f0160208091040260200160405190810160405280929190818152602001828054610a19906136d2565b8015610a665780601f10610a3b57610100808354040283529160200191610a66565b820191906000526020600020905b815481529060010190602001808311610a4957829003601f168201915b5050505050905090565b610a78611431565b73ffffffffffffffffffffffffffffffffffffffff168273ffffffffffffffffffffffffffffffffffffffff161415610ae6576040517f08c379a0000000000000000000000000000000000000000000000000000000008152600401610add90613293565b60405180910390fd5b8060056000610af3611431565b73ffffffffffffffffffffffffffffffffffffffff1673ffffffffffffffffffffffffffffffffffffffff16815260200190815260200160002060008473ffffffffffffffffffffffffffffffffffffffff1673ffffffffffffffffffffffffffffffffffffffff16815260200190815260200160002060006101000a81548160ff0219169083151502179055508173ffffffffffffffffffffffffffffffffffffffff16610ba0611431565b73ffffffffffffffffffffffffffffffffffffffff167f17307eab39ab6107e8899845ad3d59bd9653f200f220920489ca2b5937696c3183604051610be59190613198565b60405180910390a35050565b60606000610c25610c018461182c565b604051602001610c11919061305d565b6040516020818303038152906040526119d9565b9050600a8054905081610c38919061374d565b9050600a8181548110610c74577f4e487b7100000000000000000000000000000000000000000000000000000000600052603260045260246000fd5b906000526020600020018054610c89906136d2565b80601f0160208091040260200160405190810160405280929190818152602001828054610cb5906136d2565b8015610d025780601f10610cd757610100808354040283529160200191610d02565b820191906000526020600020905b815481529060010190602001808311610ce557829003601f168201915b5050505050915050919050565b610d20610d1a611431565b836114f2565b610d5f576040517f08c379a0000000000000000000000000000000000000000000000000000000008152600401610d5690613413565b60405180910390fd5b610d6b84848484611a0c565b50505050565b60606000610da5610d818461182c565b604051602001610d91919061303b565b6040516020818303038152906040526119d9565b9050600b8054905081610db8919061374d565b9050600b8181548110610df4577f4e487b7100000000000000000000000000000000000000000000000000000000600052603260045260246000fd5b906000526020600020018054610e09906136d2565b80601f0160208091040260200160405190810160405280929190818152602001828054610e35906136d2565b8015610e825780601f10610e5757610100808354040283529160200191610e82565b820191906000526020600020905b815481529060010190602001808311610e6557829003601f168201915b5050505050915050919050565b6060610e9a826113c5565b610ed9576040517f08c379a0000000000000000000000000000000000000000000000000000000008152600401610ed090613373565b60405180910390fd5b6000600660008481526020019081526020016000208054610ef9906136d2565b80601f0160208091040260200160405190810160405280929190818152602001828054610f25906136d2565b8015610f725780601f10610f4757610100808354040283529160200191610f72565b820191906000526020600020905b815481529060010190602001808311610f5557829003601f168201915b505050505090506000610f83611a68565b9050600081511415610f99578192505050610fdc565b600082511115610fce578082604051602001610fb6929190612fb7565b60405160208183030381529060405292505050610fdc565b610fd784611a7f565b925050505b919050565b600d54610fec61049d565b111561102d576040517f08c379a000000000000000000000000000000000000000000000000000000000815260040161102490613213565b60405180910390fd5b60006110396007611b26565b9050600061104682610736565b9050600061105383610bf1565b9050600061106084610d71565b9050600083838360405160200161107993929190612fdb565b604051602081830303815290604052905060006008826040516020016110a092919061300c565b604051602081830303815290604052905060006110e5836110c084611b34565b6040516020016110d192919061307f565b604051602081830303815290604052611b34565b90506000816040516020016110fa91906130e6565b60405160208183030381529060405290506111496040518060400160405280601581526020017f0a2d2d2d2d2d2d2d2d2d2d2d2d2d2d2d2d2d2d2d2d00000000000000000000008152506112c2565b611152816112c2565b6111906040518060400160405280601581526020017f2d2d2d2d2d2d2d2d2d2d2d2d2d2d2d2d2d2d2d2d0a00000000000000000000008152506112c2565b61119a3389611cd3565b6111a48882611cf1565b6111ae6007611d65565b6111d16040518060600160405280602581526020016138a8602591398933611d7b565b6001600c60008282546111e49190613507565b925050819055507febb98688741ffa4c7589bf325de30cf7becb63de567842e1ccdb6cb949fdc82c338960405161121c92919061316f565b60405180910390a15050505050505050565b6000600560008473ffffffffffffffffffffffffffffffffffffffff1673ffffffffffffffffffffffffffffffffffffffff16815260200190815260200160002060008373ffffffffffffffffffffffffffffffffffffffff1673ffffffffffffffffffffffffffffffffffffffff16815260200190815260200160002060009054906101000a900460ff16905092915050565b611358816040516024016112d691906131b3565b6040516020818303038152906040527f41304fac000000000000000000000000000000000000000000000000000000007bffffffffffffffffffffffffffffffffffffffffffffffffffffffff19166020820180517bffffffffffffffffffffffffffffffffffffffffffffffffffffffff8381831617835250505050611e1a565b50565b60007f01ffc9a7000000000000000000000000000000000000000000000000000000007bffffffffffffffffffffffffffffffffffffffffffffffffffffffff1916827bffffffffffffffffffffffffffffffffffffffffffffffffffffffff1916149050919050565b60008073ffffffffffffffffffffffffffffffffffffffff166002600084815260200190815260200160002060009054906101000a900473ffffffffffffffffffffffffffffffffffffffff1673ffffffffffffffffffffffffffffffffffffffff1614159050919050565b600033905090565b816004600083815260200190815260200160002060006101000a81548173ffffffffffffffffffffffffffffffffffffffff021916908373ffffffffffffffffffffffffffffffffffffffff160217905550808273ffffffffffffffffffffffffffffffffffffffff166114ac83610874565b73ffffffffffffffffffffffffffffffffffffffff167f8c5be1e5ebec7d5bd14f71427d1e84f3dd0314c0f7b2291e5b200ac8c7c3b92560405160405180910390a45050565b60006114fd826113c5565b61153c576040517f08c379a0000000000000000000000000000000000000000000000000000000008152600401611533906132b3565b60405180910390fd5b600061154783610874565b90508073ffffffffffffffffffffffffffffffffffffffff168473ffffffffffffffffffffffffffffffffffffffff1614806115b657508373ffffffffffffffffffffffffffffffffffffffff1661159e84610539565b73ffffffffffffffffffffffffffffffffffffffff16145b806115c757506115c6818561122e565b5b91505092915050565b8273ffffffffffffffffffffffffffffffffffffffff166115f082610874565b73ffffffffffffffffffffffffffffffffffffffff1614611646576040517f08c379a000000000000000000000000000000000000000000000000000000000815260040161163d906133b3565b60405180910390fd5b600073ffffffffffffffffffffffffffffffffffffffff168273ffffffffffffffffffffffffffffffffffffffff1614156116b6576040517f08c379a00000000000000000000000000000000000000000000000000000000081526004016116ad90613273565b60405180910390fd5b6116c1838383611e43565b6116cc600082611439565b6001600360008573ffffffffffffffffffffffffffffffffffffffff1673ffffffffffffffffffffffffffffffffffffffff168152602001908152602001600020600082825461171c91906135e8565b925050819055506001600360008473ffffffffffffffffffffffffffffffffffffffff1673ffffffffffffffffffffffffffffffffffffffff16815260200190815260200160002060008282546117739190613507565b92505081905550816002600083815260200190815260200160002060006101000a81548173ffffffffffffffffffffffffffffffffffffffff021916908373ffffffffffffffffffffffffffffffffffffffff160217905550808273ffffffffffffffffffffffffffffffffffffffff168473ffffffffffffffffffffffffffffffffffffffff167fddf252ad1be2c89b69c2b068fc378daa952ba7f163c4a11628f55a4df523b3ef60405160405180910390a4505050565b60606000821415611874576040518060400160405280600181526020017f300000000000000000000000000000000000000000000000000000000000000081525090506119d4565b600082905060005b600082146118a657808061188f90613704565b915050600a8261189f919061355d565b915061187c565b60008167ffffffffffffffff8111156118e8577f4e487b7100000000000000000000000000000000000000000000000000000000600052604160045260246000fd5b6040519080825280601f01601f19166020018201604052801561191a5781602001600182028036833780820191505090505b5090505b600085146119cd5760018261193391906135e8565b9150600a85611942919061374d565b603061194e9190613507565b60f81b81838151811061198a577f4e487b7100000000000000000000000000000000000000000000000000000000600052603260045260246000fd5b60200101907effffffffffffffffffffffffffffffffffffffffffffffffffffffffffffff1916908160001a905350600a856119c6919061355d565b945061191e565b8093505050505b919050565b6000816040516020016119ec9190612fa0565b6040516020818303038152906040528051906020012060001c9050919050565b611a178484846115d0565b611a2384848484611e48565b611a62576040517f08c379a0000000000000000000000000000000000000000000000000000000008152600401611a5990613233565b60405180910390fd5b50505050565b606060405180602001604052806000815250905090565b6060611a8a826113c5565b611ac9576040517f08c379a0000000000000000000000000000000000000000000000000000000008152600401611ac0906133d3565b60405180910390fd5b6000611ad3611a68565b90506000815111611af35760405180602001604052806000815250611b1e565b80611afd8461182c565b604051602001611b0e929190612fb7565b6040516020818303038152906040525b915050919050565b600081600001549050919050565b6060600082511415611b5757604051806020016040528060008152509050611cce565b60006040518060600160405280604081526020016138cd6040913990506000600360028551611b869190613507565b611b90919061355d565b6004611b9c919061358e565b90506000602082611bad9190613507565b67ffffffffffffffff811115611bec577f4e487b7100000000000000000000000000000000000000000000000000000000600052604160045260246000fd5b6040519080825280601f01601f191660200182016040528015611c1e5781602001600182028036833780820191505090505b509050818152600183018586518101602084015b81831015611c8d576003830192508251603f8160121c168501518253600182019150603f81600c1c168501518253600182019150603f8160061c168501518253600182019150603f8116850151825360018201915050611c32565b600389510660018114611ca75760028114611cb757611cc2565b613d3d60f01b6002830352611cc2565b603d60f81b60018303525b50505050508093505050505b919050565b611ced828260405180602001604052806000815250611fdf565b5050565b611cfa826113c5565b611d39576040517f08c379a0000000000000000000000000000000000000000000000000000000008152600401611d3090613333565b60405180910390fd5b80600660008481526020019081526020016000209080519060200190611d6092919061221b565b505050565b6001816000016000828254019250508190555050565b611e15838383604051602401611d93939291906131d5565b6040516020818303038152906040527fe3849f79000000000000000000000000000000000000000000000000000000007bffffffffffffffffffffffffffffffffffffffffffffffffffffffff19166020820180517bffffffffffffffffffffffffffffffffffffffffffffffffffffffff8381831617835250505050611e1a565b505050565b60008151905060006a636f6e736f6c652e6c6f679050602083016000808483855afa5050505050565b505050565b6000611e698473ffffffffffffffffffffffffffffffffffffffff1661203a565b15611fd2578373ffffffffffffffffffffffffffffffffffffffff1663150b7a02611e92611431565b8786866040518563ffffffff1660e01b8152600401611eb49493929190613123565b602060405180830381600087803b158015611ece57600080fd5b505af1925050508015611eff57506040513d601f19601f82011682018060405250810190611efc919061255f565b60015b611f82573d8060008114611f2f576040519150601f19603f3d011682016040523d82523d6000602084013e611f34565b606091505b50600081511415611f7a576040517f08c379a0000000000000000000000000000000000000000000000000000000008152600401611f7190613233565b60405180910390fd5b805181602001fd5b63150b7a0260e01b7bffffffffffffffffffffffffffffffffffffffffffffffffffffffff1916817bffffffffffffffffffffffffffffffffffffffffffffffffffffffff191614915050611fd7565b600190505b949350505050565b611fe9838361204d565b611ff66000848484611e48565b612035576040517f08c379a000000000000000000000000000000000000000000000000000000000815260040161202c90613233565b60405180910390fd5b505050565b600080823b905060008111915050919050565b600073ffffffffffffffffffffffffffffffffffffffff168273ffffffffffffffffffffffffffffffffffffffff1614156120bd576040517f08c379a00000000000000000000000000000000000000000000000000000000081526004016120b490613353565b60405180910390fd5b6120c6816113c5565b15612106576040517f08c379a00000000000000000000000000000000000000000000000000000000081526004016120fd90613253565b60405180910390fd5b61211260008383611e43565b6001600360008473ffffffffffffffffffffffffffffffffffffffff1673ffffffffffffffffffffffffffffffffffffffff16815260200190815260200160002060008282546121629190613507565b92505081905550816002600083815260200190815260200160002060006101000a81548173ffffffffffffffffffffffffffffffffffffffff021916908373ffffffffffffffffffffffffffffffffffffffff160217905550808273ffffffffffffffffffffffffffffffffffffffff16600073ffffffffffffffffffffffffffffffffffffffff167fddf252ad1be2c89b69c2b068fc378daa952ba7f163c4a11628f55a4df523b3ef60405160405180910390a45050565b828054612227906136d2565b90600052602060002090601f0160209004810192826122495760008555612290565b82601f1061226257805160ff1916838001178555612290565b82800160010185558215612290579182015b8281111561228f578251825591602001919060010190612274565b5b50905061229d91906122a1565b5090565b5b808211156122ba5760008160009055506001016122a2565b5090565b60006122d16122cc8461347f565b61344e565b9050828152602081018484840111156122e957600080fd5b6122f4848285613690565b509392505050565b60008135905061230b8161384b565b92915050565b60008135905061232081613862565b92915050565b60008135905061233581613879565b92915050565b60008151905061234a81613879565b92915050565b600082601f83011261236157600080fd5b81356123718482602086016122be565b91505092915050565b60008135905061238981613890565b92915050565b6000602082840312156123a157600080fd5b60006123af848285016122fc565b91505092915050565b600080604083850312156123cb57600080fd5b60006123d9858286016122fc565b92505060206123ea858286016122fc565b9150509250929050565b60008060006060848603121561240957600080fd5b6000612417868287016122fc565b9350506020612428868287016122fc565b92505060406124398682870161237a565b9150509250925092565b6000806000806080858703121561245957600080fd5b6000612467878288016122fc565b9450506020612478878288016122fc565b93505060406124898782880161237a565b925050606085013567ffffffffffffffff8111156124a657600080fd5b6124b287828801612350565b91505092959194509250565b600080604083850312156124d157600080fd5b60006124df858286016122fc565b92505060206124f085828601612311565b9150509250929050565b6000806040838503121561250d57600080fd5b600061251b858286016122fc565b925050602061252c8582860161237a565b9150509250929050565b60006020828403121561254857600080fd5b600061255684828501612326565b91505092915050565b60006020828403121561257157600080fd5b600061257f8482850161233b565b91505092915050565b60006020828403121561259a57600080fd5b60006125a88482850161237a565b91505092915050565b6125ba8161361c565b82525050565b6125c98161362e565b82525050565b60006125da826134c4565b6125e481856134da565b93506125f481856020860161369f565b6125fd8161383a565b840191505092915050565b6000612613826134cf565b61261d81856134eb565b935061262d81856020860161369f565b6126368161383a565b840191505092915050565b600061264c826134cf565b61265681856134fc565b935061266681856020860161369f565b80840191505092915050565b6000815461267f816136d2565b61268981866134fc565b945060018216600081146126a457600181146126b5576126e8565b60ff198316865281860193506126e8565b6126be856134af565b60005b838110156126e0578154818901526001820191506020810190506126c1565b838801955050505b50505092915050565b60006126fe6018836134eb565b91507f4578636565646564204d6178204e465473204d696e74656400000000000000006000830152602082019050919050565b600061273e6032836134eb565b91507f4552433732313a207472616e7366657220746f206e6f6e20455243373231526560008301527f63656976657220696d706c656d656e74657200000000000000000000000000006020830152604082019050919050565b60006127a4601c836134eb565b91507f4552433732313a20746f6b656e20616c7265616479206d696e746564000000006000830152602082019050919050565b60006127e4600a836134fc565b91507f54484952445f574f5244000000000000000000000000000000000000000000006000830152600a82019050919050565b60006128246024836134eb565b91507f4552433732313a207472616e7366657220746f20746865207a65726f2061646460008301527f72657373000000000000000000000000000000000000000000000000000000006020830152604082019050919050565b600061288a6019836134eb565b91507f4552433732313a20617070726f766520746f2063616c6c6572000000000000006000830152602082019050919050565b60006128ca6063836134fc565b91507f222c20226465736372697074696f6e223a20224120686967686c79206163636c60008301527f61696d656420636f6c6c656374696f6e206f6620737175617265732e222c202260208301527f696d616765223a2022646174613a696d6167652f7376672b786d6c3b6261736560408301527f36342c00000000000000000000000000000000000000000000000000000000006060830152606382019050919050565b600061297c600b836134fc565b91507f5345434f4e445f574f52440000000000000000000000000000000000000000006000830152600b82019050919050565b60006129bc602c836134eb565b91507f4552433732313a206f70657261746f7220717565727920666f72206e6f6e657860008301527f697374656e7420746f6b656e00000000000000000000000000000000000000006020830152604082019050919050565b6000612a22600d836134fc565b91507f3c2f746578743e3c2f7376673e000000000000000000000000000000000000006000830152600d82019050919050565b6000612a626038836134eb565b91507f4552433732313a20617070726f76652063616c6c6572206973206e6f74206f7760008301527f6e6572206e6f7220617070726f76656420666f7220616c6c00000000000000006020830152604082019050919050565b6000612ac8602a836134eb565b91507f4552433732313a2062616c616e636520717565727920666f7220746865207a6560008301527f726f2061646472657373000000000000000000000000000000000000000000006020830152604082019050919050565b6000612b2e6029836134eb565b91507f4552433732313a206f776e657220717565727920666f72206e6f6e657869737460008301527f656e7420746f6b656e00000000000000000000000000000000000000000000006020830152604082019050919050565b6000612b94602e836134eb565b91507f45524337323155524953746f726167653a2055524920736574206f66206e6f6e60008301527f6578697374656e7420746f6b656e0000000000000000000000000000000000006020830152604082019050919050565b6000612bfa6002836134fc565b91507f227d0000000000000000000000000000000000000000000000000000000000006000830152600282019050919050565b6000612c3a6020836134eb565b91507f4552433732313a206d696e7420746f20746865207a65726f20616464726573736000830152602082019050919050565b6000612c7a6031836134eb565b91507f45524337323155524953746f726167653a2055524920717565727920666f722060008301527f6e6f6e6578697374656e7420746f6b656e0000000000000000000000000000006020830152604082019050919050565b6000612ce0602c836134eb565b91507f4552433732313a20617070726f76656420717565727920666f72206e6f6e657860008301527f697374656e7420746f6b656e00000000000000000000000000000000000000006020830152604082019050919050565b6000612d466029836134eb565b91507f4552433732313a207472616e73666572206f6620746f6b656e2074686174206960008301527f73206e6f74206f776e00000000000000000000000000000000000000000000006020830152604082019050919050565b6000612dac602f836134eb565b91507f4552433732314d657461646174613a2055524920717565727920666f72206e6f60008301527f6e6578697374656e7420746f6b656e00000000000000000000000000000000006020830152604082019050919050565b6000612e12600a836134fc565b91507f7b226e616d65223a2022000000000000000000000000000000000000000000006000830152600a82019050919050565b6000612e526021836134eb565b91507f4552433732313a20617070726f76616c20746f2063757272656e74206f776e6560008301527f72000000000000000000000000000000000000000000000000000000000000006020830152604082019050919050565b6000612eb8600a836134fc565b91507f46495253545f574f5244000000000000000000000000000000000000000000006000830152600a82019050919050565b6000612ef8601d836134fc565b91507f646174613a6170706c69636174696f6e2f6a736f6e3b6261736536342c0000006000830152601d82019050919050565b6000612f386031836134eb565b91507f4552433732313a207472616e736665722063616c6c6572206973206e6f74206f60008301527f776e6572206e6f7220617070726f7665640000000000000000000000000000006020830152604082019050919050565b612f9a81613686565b82525050565b6000612fac8284612641565b915081905092915050565b6000612fc38285612641565b9150612fcf8284612641565b91508190509392505050565b6000612fe78286612641565b9150612ff38285612641565b9150612fff8284612641565b9150819050949350505050565b60006130188285612672565b91506130248284612641565b915061302f82612a15565b91508190509392505050565b6000613046826127d7565b91506130528284612641565b915081905092915050565b60006130688261296f565b91506130748284612641565b915081905092915050565b600061308a82612e05565b91506130968285612641565b91506130a1826128bd565b91506130ad8284612641565b91506130b882612bed565b91508190509392505050565b60006130cf82612eab565b91506130db8284612641565b915081905092915050565b60006130f182612eeb565b91506130fd8284612641565b915081905092915050565b600060208201905061311d60008301846125b1565b92915050565b600060808201905061313860008301876125b1565b61314560208301866125b1565b6131526040830185612f91565b818103606083015261316481846125cf565b905095945050505050565b600060408201905061318460008301856125b1565b6131916020830184612f91565b9392505050565b60006020820190506131ad60008301846125c0565b92915050565b600060208201905081810360008301526131cd8184612608565b905092915050565b600060608201905081810360008301526131ef8186612608565b90506131fe6020830185612f91565b61320b60408301846125b1565b949350505050565b6000602082019050818103600083015261322c816126f1565b9050919050565b6000602082019050818103600083015261324c81612731565b9050919050565b6000602082019050818103600083015261326c81612797565b9050919050565b6000602082019050818103600083015261328c81612817565b9050919050565b600060208201905081810360008301526132ac8161287d565b9050919050565b600060208201905081810360008301526132cc816129af565b9050919050565b600060208201905081810360008301526132ec81612a55565b9050919050565b6000602082019050818103600083015261330c81612abb565b9050919050565b6000602082019050818103600083015261332c81612b21565b9050919050565b6000602082019050818103600083015261334c81612b87565b9050919050565b6000602082019050818103600083015261336c81612c2d565b9050919050565b6000602082019050818103600083015261338c81612c6d565b9050919050565b600060208201905081810360008301526133ac81612cd3565b9050919050565b600060208201905081810360008301526133cc81612d39565b9050919050565b600060208201905081810360008301526133ec81612d9f565b9050919050565b6000602082019050818103600083015261340c81612e45565b9050919050565b6000602082019050818103600083015261342c81612f2b565b9050919050565b60006020820190506134486000830184612f91565b92915050565b6000604051905081810181811067ffffffffffffffff821117156134755761347461380b565b5b8060405250919050565b600067ffffffffffffffff82111561349a5761349961380b565b5b601f19601f8301169050602081019050919050565b60008190508160005260206000209050919050565b600081519050919050565b600081519050919050565b600082825260208201905092915050565b600082825260208201905092915050565b600081905092915050565b600061351282613686565b915061351d83613686565b9250827fffffffffffffffffffffffffffffffffffffffffffffffffffffffffffffffff038211156135525761355161377e565b5b828201905092915050565b600061356882613686565b915061357383613686565b925082613583576135826137ad565b5b828204905092915050565b600061359982613686565b91506135a483613686565b9250817fffffffffffffffffffffffffffffffffffffffffffffffffffffffffffffffff04831182151516156135dd576135dc61377e565b5b828202905092915050565b60006135f382613686565b91506135fe83613686565b9250828210156136115761361061377e565b5b828203905092915050565b600061362782613666565b9050919050565b60008115159050919050565b60007fffffffff0000000000000000000000000000000000000000000000000000000082169050919050565b600073ffffffffffffffffffffffffffffffffffffffff82169050919050565b6000819050919050565b82818337600083830152505050565b60005b838110156136bd5780820151818401526020810190506136a2565b838111156136cc576000848401525b50505050565b600060028204905060018216806136ea57607f821691505b602082108114156136fe576136fd6137dc565b5b50919050565b600061370f82613686565b91507fffffffffffffffffffffffffffffffffffffffffffffffffffffffffffffffff8214156137425761374161377e565b5b600182019050919050565b600061375882613686565b915061376383613686565b925082613773576137726137ad565b5b828206905092915050565b7f4e487b7100000000000000000000000000000000000000000000000000000000600052601160045260246000fd5b7f4e487b7100000000000000000000000000000000000000000000000000000000600052601260045260246000fd5b7f4e487b7100000000000000000000000000000000000000000000000000000000600052602260045260246000fd5b7f4e487b7100000000000000000000000000000000000000000000000000000000600052604160045260246000fd5b6000601f19601f8301169050919050565b6138548161361c565b811461385f57600080fd5b50565b61386b8161362e565b811461387657600080fd5b50565b6138828161363a565b811461388d57600080fd5b50565b61389981613686565b81146138a457600080fd5b5056fe416e204e465420772f20494420257320686173206265656e206d696e74656420746f2025734142434445464748494a4b4c4d4e4f505152535455565758595a6162636465666768696a6b6c6d6e6f707172737475767778797a303132333435363738392b2fa2646970667358221220a5de27e37e71b1d47a1375e2c0d68ce03245d842912cfa5da768de24150c6ba364736f6c634300080000333c73766720786d6c6e733d27687474703a2f2f7777772e77332e6f72672f323030302f73766727207072657365727665417370656374526174696f3d27784d696e594d696e206d656574272076696577426f783d273020302033353020333530273e3c7374796c653e2e62617365207b2066696c6c3a2077686974653b20666f6e742d66616d696c793a2073657269663b20666f6e742d73697a653a20323470783b207d3c2f7374796c653e3c726563742077696474683d273130302527206865696768743d2731303025272066696c6c3d27626c61636b27202f3e3c7465787420783d273530252720793d273530252720636c6173733d27626173652720646f6d696e616e742d626173656c696e653d276d6964646c652720746578742d616e63686f723d276d6964646c65273e",
  "linkReferences": {},
  "deployedLinkReferences": {}
}